:040000008031ED2836
:10000800803120007F08F9008B1E0B280C28172848
:100018000B1D0F28102817288B120B111113210004
:1000280011179D1417282100911C1B281C284B28E8
:100038002000911C202821284B2891102D1D2528AF
:1000480026284B2800303D02023003193C02031CCD
:100058002E282F2834280130BC020030BD3B4B2805
:100068008C168531E225803120003F08BD01BD078F
:100078003E08BC01BC070130A0070030A13D00309C
:10008800A23D0030A33D4B284B284B284B2820008D
:10009800911D4F28502854288031F0208031542851
:1000A8002100111F58285928DF282000111F5D281A
:1000B8005E28DF287B18612862287B280D30210004
:1000C8009D006030200095000B118B162D1D6D28AA
:1000D8006E2870288C12702821001C082000AB01A3
:1000E800AB0721001B082000AA01AA07DA282E085E
:1000F800F7007708FA000130F7007708FA077A085E
:100108007C06031D8828892899280130F70077087C
:10011800B00708303002031C92289328D6280730ED
:10012800F7007708B000D628D6282E080907203E01
:100138008600013087002A08C03F2B08C13F2100F4
:100148001C082000AB01AB0721001B082000AA01F6
:10015800AA073008F700F8010C30F735F80D890BBD
:10016800B1287708AA047808AB0400302A04F700FD
:1001780020302B04F8002E080907A03E86008701CE
:100188007708C03F7808C13FB0010130F700770811
:10019800AE0728302E02031CD228D328D628AE0159
:1001A800D628D62821009D011113DA287B142000B7
:1001B8001113DF28DF282700931EE328E428E92805
:1001C80093128531E2258031E92879082000FF0063
:1001D800090088018431EC2C2400151FF428F52827
:1001E800FB2815131108F1007108F6007A2C140881
:1001F800F100F2017108F4007208F5002D30740561
:10020800F40000307505F50009307406F10000307F
:100218007506F20072087104031D132914291B299D
:10022800FD017B111108F1007108F6007A2C2930C4
:100238007406F10000307506F20072087104031D9F
:10024800262927293E2A1108F1007108F6007B1D8E
:100258002E292F29362A2000AF08031D34293529D5
:100268008729FD08031D39293A29312A76183D299D
:100278003F29FB144029FB10FB18432944294B292B
:10028800863112268031863105268031312A2000B8
:100298003F08BD01BD073E08BC01BC07AE01FC011B
:1002A800B0017619582959296829AD010314AD0DF3
:1002B80021008C1686311226803186310526803140
:1002C8008531E2258031312AF6186B296C29772986
:1002D8000230F1007108AD00863105268031853184
:1002E800FD258031312A0430F10071082000AD006D
:1002F8008631122680318531B2258031312A312A62
:10030800312A312A312A20002F08013A031D8D296C
:100318008E29C729FD08031D922993299B29760850
:10032800F100F2017108A8007208A900312A7D08BD
:10033800013A031DA029A129C1297608F100F2017B
:100348007108F200F1017108A8077208A93D003090
:1003580029020230031928020318B329B429B9293C
:100368000230BE000030BF00312A2908BF01BF0794
:100378002808BE01BE07312A312AFD010314FD0DEC
:10038800312A312A312A2F08053A031DCC29CD29D3
:10039800E629FD08031DD129D229312A0330760226
:1003A800031CD729D829312A783076020318DD2989
:1003B800DE29312A7608F1007108B200312A312A83
:1003C800312A312A2F08083A031DEB29EC29052A7E
:1003D800FD08031DF029F129312AF61EF429F52913
:1003E800FA29C030F1007108F604FF291F30F10026
:1003F8007108F605FF297608F1007108B300312A63
:10040800312A2F08093A031D0A2A0B2A312AFD0826
:10041800031D0F2A102A1C2A7608553A0319152A93
:10042800162A312A0230F1007108FD00312A312ADA
:100438007D08013A031D212A222A312A7608AA3A80
:10044800031D272A282A312AFB15312A312A312A65
:10045800312A312A312A312A312A0130F100710832
:10046800FD077A2C7608F10071082000AF007B1593
:100478007A2C7A2C0C307405F10000307505F200E6
:100488000C3071067204031D4A2A4B2A702CF41A88
:100498004E2A4F2A582AFD010314FD0D2400110885
:1004A800F1007108F600582A2000AF08031D5D2AE4
:1004B8005E2A7E2A7D08013A031D632A642A7B2A64
:1004C8000030FB180130F1007108F600AD1C6D2AF0
:1004D8006E2A702A7615672C2D1D732A742A672CAC
:1004E8000730F1007108F604672C672C672CF601B9
:1004F800672C672C2F08013A031D832A842A9E2A19
:100508007D08013A031D892A8A2A8F2A3E08F100AC
:100518007108F600672C7D08023A031D942A952A73
:100528009A2A3F08F1007108F600672CF601672C3B
:10053800672C672C2F08023A031DA32AA42AC32A72
:100548007D08013A031DA92AAA2AC02A7C082E027E
:10055800031CAF2AB02AB72A7C03FF3A2E07F10002
:100568007108F600672C7C03FF3A2E07283EF1003D
:100578007108F600672C672CF601672C672C2F088A
:10058800033A031DC82AC92A612B7D08013A031DB5
:10059800CE2ACF2AE72A2E08F1007108B1003108C7
:1005A8007C06031DD82AD92ADB2AF601672C7C0889
:1005B8000907203E8600013087000108F100710814
:1005C800F600672C672C7D08023A031DEC2AED2AF9
:1005D800012B31087C06031DF22AF32AF52AF601BD
:1005E800672C03147C0D203E86000130870001082B
:1005F800F1007108F600672C672C7D08033A031D8B
:10060800062B072B1A2B31087C06031D0C2B0D2BF0
:100618000F2BF601672C7C080907A03E860087018E
:100628000108F1007108F600672C672C7D08043A70
:10063800031D1F2B202B672C31087C06031D252B3F
:10064800262B282BF601672C03147C0DA03E860070
:1006580087010108F1000130F135FF3E031D302B01
:100668007135F2007208F600F030F1007108F605F5
:1006780003147C0DA03E8600870101080339F100B0
:100688007108F6042D1C492B4A2B4E2BFC01031430
:10069800FC0D532B0130F1007108FC07532B283057
:1006A8007C02031C582B592B5A2BFC01FD01672C8B
:1006B800672C672C672C672C672C2F08043A031DBE
:1006C800662B672BEB2B7D08013A031D6C2B6D2BDA
:1006D800852B2E08F1007108B10031087C06031D36
:1006E800762B772B792BF601672C7C080907203E9F
:1006F8008600013087000108F1007108F600672CB8
:10070800672C7D08023A031D8A2B8B2BB12B3108ED
:100718007C06031D902B912B932BF601672C031459
:100728007C0D203E86000130870001080339F10066
:100738007108F6007C080907A03E860087010108B9
:10074800F1000130F135FF3E031DA62B7135FC3950
:10075800F2007208F604672C672C7D08033A031D23
:10076800B62BB72B672C31087C06031DBC2BBD2B81
:10077800BF2BF601672C7C080907A03E860087017D
:10078800403FF100413FF2000630F236F10C890B90
:10079800C92B7108F3007308F6002D1CD42BD52B38
:1007A800D92BFC010314FC0DDE2B0130F10071087C
:1007B800FC07DE2B28307C02031CE32BE42BE52B03
:1007C800FC01FD01672C672C672C672C672C2F0810
:1007D800063A031DF02BF12B182C7D08013A031D56
:1007E800F62BF72B042C2308A7002208A6002108C3
:1007F800A5002008A4002408F1007108F600672C61
:1008080005307D020318092C0A2C142C7D08FF3EA4
:10081800243E860087010108F1007108F600672C64
:10082800F601672C672C672C2F08073A031D1D2C2F
:100838001E2C4C2C7D08013A031D232C242C292C1A
:10084800E730F1007108F600672C7D08023A031DB5
:100858002E2C2F2C342CC330F1007108F600672C95
:100868007D08033A031D392C3A2C3E2CF60103145B
:10087800F60D672C7D08043A031D432C442C462CA6
:10088800F601672CF601672C672C672C672C672C00
:100898002F08083A031D512C522C672C7D08013A69
:1008A800031D572C582C5D2C3308F1007108F600F5
:1008B800672CF601672C672C672C672C672C672C34
:1008C800672C672C672C0130F1007108FD0776084A
:1008D8008531CE2580317A2C240095131108F1003A
:1008E8007108F6007A2C7A2C7A2C7A2C24001516AA
:1008F8002000911108002000B700822C23009518D1
:10090800862C872C822C882C20003708B500B6014D
:1009180035082300910020003608230092002000AB
:100928003408230093003F302000B5003508230029
:100938009505200003108B1FA22CA32CA42C0314B4
:100948008B132300151555309600AA309600951480
:1009580015112000031CB12CB22CB52C8B17B52C0B
:10096800B52C08002000BB01F030210099000330AD
:100978009500113023008C0020008C0120302400C9
:100988008C001F3021008C000230230097008B015F
:10099800853144258431FB10863118268431853110
:1009A800F1258431853190258431DA2CFB1DDD2C2D
:1009B800DE2CDA2C20003208090724009200853149
:1009C8001A258431FB11DA2CDA2CDA2C8031ED2847
:1009D800FB01FC01FD01203084000030850014304B
:1009E80086310C268431A0308400003085005030D8
:1009F80086310C2684312030840001308500503047
:100A080086310C26843186311D268431BC0086311E
:100A18001E268431BD0086311F268431BE008631F2
:100A280020268431BF0020008431B62C32302000CB
:100A3800B8003808B900BA0102303A02031C252D63
:100A4800262D282D432D432D3908860087010108BE
:100A5800B8003808B4003A0884317F248531013061
:100A68002000B8003808B9070130B8003808BA07BC
:100A780002303A02031C412D422D282D432D080037
:100A880032302000B8003808B900BA0102303A0202
:100A9800031C4F2D502D522D6C2D6C2D3A0885318D
:100AA8006D2585312000B80039088600870138088F
:100AB80081000130B8003808B9070130B80038089B
:100AC800BA0702303A02031C6A2D6B2D522D6C2D89
:100AD80008002000B700640023009518742D752DB8
:100AE8006F2D762D20003708B400B5013408230097
:100AF800910020003508230092003F302000B60006
:100B08003608230095051514031015180314003032
:100B1800093D13088F2D080021009111240095012B
:100B28003F3021008C002000320809072400920081
:100B3800363095000130960003309700C03094009D
:100B4800FF30930020009111210091158B170B178E
:100B58002000AD010314AD0DFB10080020008C121D
:100B680021008C1220008C129C01C8309B009A0135
:100B780005309C0091100030A3000030A200003026
:100B8800A1000030A00021009114200033082100AA
:100B980098000800F000D02D24001418D42DD52D6D
:100BA800D02DD62D951370089100951FDC2DDD2DC5
:100BB800E12DD62DD62DE12DD62D08007B10210054
:100BC80011132000111321001D1401309D00603005
:100BD800200095000B118B160800A33021009E0001
:100BE80001309D00111320001113C230220097001C
:100BF800080021008C1627009312911692128B156B
:100C0800080021008C16911020009C01911008000A
:100C1800640080010131890B0D2E00348B112700EF
:100C280092129112931208008B12210095159512B9
:0A0C3800080010342734103427346C
:020000040001F9
:080000000000000000000000F8
:04000E00E4C9FFDF63
:10E0000020000400FF00FF00FF00FF00FF00FF00F2
:00000001FF
